{
  "params": {
    "seed": "000102030405060708090a0b0c0d0e0f101112131415161718191a1b1c1d1e1f",
    "funding_amount_satoshis": 10000000,
    "dust_limit_satoshis": 354,
    "csv_delay": 144,
    "commit_height": 42,
    "nums_point": "02dca094751109d0bd055d03565874e8276dd53e926b44e3bd1bb6bf4bc130a279",
    "keys": {
      "local_funding_privkey": "20ae2d254ab29afd3dcbf8744a5b88d06070f55a4bd5532483a093ac4db91277",
      "local_funding_pubkey": "03b7203dec7c13896b6ff1f58b24f84458c441720a12b5a57426397e22f0a8c78b",
      "remote_funding_privkey": "f0c5500a9dbd7cdcd46ced7bdeb937d4dcbf90f9b9357626e7ee54ab024c3df0",
      "remote_funding_pubkey": "02956e6845a6f346f97c5e028c0f8ab38a76b0124fd7184deab60f682b3e657fdb",
      "local_payment_basepoint_secret": "277975b5b081a9cbc4834e066d7bb494e4fde4f7637257dd3d312a0ae7cb7754",
      "local_payment_basepoint": "03955b6085296cbd2447a1dde0f7e273e19b83e83de1814993b1517aaf193b7f33",
      "remote_payment_basepoint_secret": "f1cd3a5ca44b52baf4eacb849fbf06e75aace97477b8bfe31d2b814dbbb562b1",
      "remote_payment_basepoint": "03595f2ef2a51d2250a21077dbea4a7fc3ce550f10676996bf63719e2a71d1f4c9",
      "local_delayed_payment_basepoint_secret": "83ccf0b638c514db5ebefdc6cbf901505e2bb20edb2bb7248ce1a51523325f9b",
      "local_delayed_payment_basepoint": "02ae68d8ff4c59864c03a42bbff6c07f9ae18047e0daa9bc40d07c410f9a0f7899",
      "remote_revocation_basepoint_secret": "36c4175b91cff9731a63d1472b5b1c4cf3e7b688e87d5fb806b2e8350484e68d",
      "remote_revocation_basepoint": "02c354121ef71922b5cb32fa685c08ac0014b558f96e28f383c45eb28b7da264c3",
      "local_htlc_basepoint_secret": "786eb5024e4851bea3ddc6e40036c81b1efcf50eeed440eedefe5245bde6fc14",
      "local_htlc_basepoint": "033ce88bf3c8333e242996964ac91ee7cd945bfe4c49668ea10f3211f3d418fbc8",
      "remote_htlc_basepoint_secret": "51c9b6cf8279def85e3925bc8f16fc0ff100ee7b03ce7c954149ca29c834b684",
      "remote_htlc_basepoint": "02932dfbf6737001e3c516696ae3dcd323fd91a01ce7898f7f91ab98eebacc323e",
      "local_per_commit_secret": "037b507180b3985cea6396d6a70987cea11ccd05fde49e943a3ea0fe56ee33ed",
      "local_per_commit_point": "02a0f5a09017c1dec2d30dd54a25dc4037fc5a2aa3832ee3c7b58f3a88a0836287",
      "derived_local_delayed_pubkey": "0315ec0138eb42f1ab4603042123988d53c854e89d1d87aa4dbb97a57482029c05",
      "derived_revocation_pubkey": "03d4c77088d346bce67c13bbbf82ca112588f4b1c9595a1f8af3be9b2f95a109a0",
      "derived_local_htlc_pubkey": "0271e82ef65d5c667159036bfcf662cac2f6c41e38323d148bbbd00fdcd923739e",
      "derived_remote_htlc_pubkey": "032deba21cf03c42362c9f912094f62ba045a040a2060882ba1ed3abf1f664a47d",
      "derived_remote_payment_pubkey": "03595f2ef2a51d2250a21077dbea4a7fc3ce550f10676996bf63719e2a71d1f4c9"
    }
  },
  "scripts": {
    "funding": {
      "funding_tx_hex": "02000000010000000000000000000000000000000000000000000000000000000000000000000000000000000000018096980000000000225120d0ebb4909d563a7ae1213fddede4ae54132fba0ef0b97ee3f8469191fecd348e00000000",
      "combined_key": "d0ebb4909d563a7ae1213fddede4ae54132fba0ef0b97ee3f8469191fecd348e",
      "pkscript": "5120d0ebb4909d563a7ae1213fddede4ae54132fba0ef0b97ee3f8469191fecd348e"
    },
    "to_local": {
      "scripts": {
        "revocation": "2015ec0138eb42f1ab4603042123988d53c854e89d1d87aa4dbb97a57482029c057520d4c77088d346bce67c13bbbf82ca112588f4b1c9595a1f8af3be9b2f95a109a0ac",
        "settle": "2015ec0138eb42f1ab4603042123988d53c854e89d1d87aa4dbb97a57482029c05ad029000b2"
      },
      "leaf_hashes": {
        "revocation": "8fcd64d212bbbf1bcec2360bbf229963240d05992fc2efb482fe6dca85b9469a",
        "settle": "dbf0400e9c7c57f30b6ad0b0677e396b5a002cbf050d873c8925b966048e6a62"
      },
      "tapscript_root": "b8b76c2e893ca785072f0d7393e35d5bd72adf8b7ff2a53538aa664378a38a36",
      "internal_key": "02dca094751109d0bd055d03565874e8276dd53e926b44e3bd1bb6bf4bc130a279",
      "output_key": "023e1fcbbd06c8a7414704612c72be9834a75d86ed85b29f0ef0c52e1950afaff3",
      "pkscript": "51203e1fcbbd06c8a7414704612c72be9834a75d86ed85b29f0ef0c52e1950afaff3"
    },
    "to_remote": {
      "scripts": {
        "settle": "20595f2ef2a51d2250a21077dbea4a7fc3ce550f10676996bf63719e2a71d1f4c9ad51b2"
      },
      "leaf_hashes": {
        "settle": "63ce35b16eb8f8687293d5a88c1d8ada3236843b79ca315fe9dd7c47f30f2bc9"
      },
      "tapscript_root": "63ce35b16eb8f8687293d5a88c1d8ada3236843b79ca315fe9dd7c47f30f2bc9",
      "internal_key": "02dca094751109d0bd055d03565874e8276dd53e926b44e3bd1bb6bf4bc130a279",
      "output_key": "023609bb705034e5629aa6ec05c5ca906ac89ac08b34c4583c259521ec30174408",
      "pkscript": "51203609bb705034e5629aa6ec05c5ca906ac89ac08b34c4583c259521ec30174408"
    },
    "local_anchor": {
      "scripts": {
        "sweep": "60b2"
      },
      "leaf_hashes": {
        "sweep": "2b88a8f3f52386d61d5b3f2d822df659c35214d7360ed05352ad7ddc1ab03912"
      },
      "tapscript_root": "2b88a8f3f52386d61d5b3f2d822df659c35214d7360ed05352ad7ddc1ab03912",
      "internal_key": "0315ec0138eb42f1ab4603042123988d53c854e89d1d87aa4dbb97a57482029c05",
      "output_key": "02f67ab012701705f3203d132f909a6810ef18c5da4c11d986cb50818803b8344e",
      "pkscript": "5120f67ab012701705f3203d132f909a6810ef18c5da4c11d986cb50818803b8344e"
    },
    "remote_anchor": {
      "scripts": {
        "sweep": "60b2"
      },
      "leaf_hashes": {
        "sweep": "2b88a8f3f52386d61d5b3f2d822df659c35214d7360ed05352ad7ddc1ab03912"
      },
      "tapscript_root": "2b88a8f3f52386d61d5b3f2d822df659c35214d7360ed05352ad7ddc1ab03912",
      "internal_key": "03595f2ef2a51d2250a21077dbea4a7fc3ce550f10676996bf63719e2a71d1f4c9",
      "output_key": "021249c50576fdf914caa14f9221370b986df520bdbc73f57d5056a86ee03e5ac4",
      "pkscript": "51201249c50576fdf914caa14f9221370b986df520bdbc73f57d5056a86ee03e5ac4"
    },
    "offered_htlc_local_commit": {
      "scripts": {
        "success": "82012088a914b8bcb07f6344b42ab04250c86a6e8b75d3fdbbc688202deba21cf03c42362c9f912094f62ba045a040a2060882ba1ed3abf1f664a47dad51b2",
        "timeout": "2071e82ef65d5c667159036bfcf662cac2f6c41e38323d148bbbd00fdcd923739ead202deba21cf03c42362c9f912094f62ba045a040a2060882ba1ed3abf1f664a47dac"
      },
      "leaf_hashes": {
        "success": "cd4b7ba74d132998f2bcea85f76082f5018e614c86f27f2631b6569c4914320f",
        "timeout": "dd0bd08b3df902c399f5493a682f6c50c476c89e233ba454e89a234d2d16ffe3"
      },
      "tapscript_root": "f36c8bd45002c5264cfce9944211e7bc6ea974a6b90cf99a87812d18acf28a2a",
      "internal_key": "03d4c77088d346bce67c13bbbf82ca112588f4b1c9595a1f8af3be9b2f95a109a0",
      "output_key": "033e5c3be9f4ce7ae07c28ad5e0eb0ab617c06eeb82b8d6ef10a5bf561848df5f0",
      "pkscript": "51203e5c3be9f4ce7ae07c28ad5e0eb0ab617c06eeb82b8d6ef10a5bf561848df5f0"
    },
    "offered_htlc_remote_commit": {
      "scripts": {
        "success": "82012088a914b8bcb07f6344b42ab04250c86a6e8b75d3fdbbc688202deba21cf03c42362c9f912094f62ba045a040a2060882ba1ed3abf1f664a47dad51b2",
        "timeout": "2071e82ef65d5c667159036bfcf662cac2f6c41e38323d148bbbd00fdcd923739ead202deba21cf03c42362c9f912094f62ba045a040a2060882ba1ed3abf1f664a47dac"
      },
      "leaf_hashes": {
        "success": "cd4b7ba74d132998f2bcea85f76082f5018e614c86f27f2631b6569c4914320f",
        "timeout": "dd0bd08b3df902c399f5493a682f6c50c476c89e233ba454e89a234d2d16ffe3"
      },
      "tapscript_root": "f36c8bd45002c5264cfce9944211e7bc6ea974a6b90cf99a87812d18acf28a2a",
      "internal_key": "03d4c77088d346bce67c13bbbf82ca112588f4b1c9595a1f8af3be9b2f95a109a0",
      "output_key": "033e5c3be9f4ce7ae07c28ad5e0eb0ab617c06eeb82b8d6ef10a5bf561848df5f0",
      "pkscript": "51203e5c3be9f4ce7ae07c28ad5e0eb0ab617c06eeb82b8d6ef10a5bf561848df5f0"
    },
    "accepted_htlc_local_commit": {
      "scripts": {
        "success": "82012088a914b8bcb07f6344b42ab04250c86a6e8b75d3fdbbc688202deba21cf03c42362c9f912094f62ba045a040a2060882ba1ed3abf1f664a47dad2071e82ef65d5c667159036bfcf662cac2f6c41e38323d148bbbd00fdcd923739eac",
        "timeout": "2071e82ef65d5c667159036bfcf662cac2f6c41e38323d148bbbd00fdcd923739ead51b26902f401b1"
      },
      "leaf_hashes": {
        "success": "69192ca730d4480044ade8741b8bd0845a32880aebaf58bc6f9186f8d2be8cbf",
        "timeout": "4da43c795365bf757ed1e9656d12ea744b4cf52b01719a3ea94e6569115623f0"
      },
      "tapscript_root": "1a990caa4bb0ed41ceb19e7466fcea5d9b31e3da968f348f6223201c5831d0a3",
      "internal_key": "03d4c77088d346bce67c13bbbf82ca112588f4b1c9595a1f8af3be9b2f95a109a0",
      "output_key": "029aadbdd9aff986e5ea086cf53ae062972d33d0a5c7f5fb986dafec7fa6d7e6ea",
      "pkscript": "51209aadbdd9aff986e5ea086cf53ae062972d33d0a5c7f5fb986dafec7fa6d7e6ea"
    },
    "accepted_htlc_remote_commit": {
      "scripts": {
        "success": "82012088a914b8bcb07f6344b42ab04250c86a6e8b75d3fdbbc688202deba21cf03c42362c9f912094f62ba045a040a2060882ba1ed3abf1f664a47dad2071e82ef65d5c667159036bfcf662cac2f6c41e38323d148bbbd00fdcd923739eac",
        "timeout": "2071e82ef65d5c667159036bfcf662cac2f6c41e38323d148bbbd00fdcd923739ead51b26902f401b1"
      },
      "leaf_hashes": {
        "success": "69192ca730d4480044ade8741b8bd0845a32880aebaf58bc6f9186f8d2be8cbf",
        "timeout": "4da43c795365bf757ed1e9656d12ea744b4cf52b01719a3ea94e6569115623f0"
      },
      "tapscript_root": "1a990caa4bb0ed41ceb19e7466fcea5d9b31e3da968f348f6223201c5831d0a3",
      "internal_key": "03d4c77088d346bce67c13bbbf82ca112588f4b1c9595a1f8af3be9b2f95a109a0",
      "output_key": "029aadbdd9aff986e5ea086cf53ae062972d33d0a5c7f5fb986dafec7fa6d7e6ea",
      "pkscript": "51209aadbdd9aff986e5ea086cf53ae062972d33d0a5c7f5fb986dafec7fa6d7e6ea"
    },
    "second_level_htlc_success": {
      "scripts": {
        "success": "2015ec0138eb42f1ab4603042123988d53c854e89d1d87aa4dbb97a57482029c05ad029000b2"
      },
      "leaf_hashes": {
        "success": "dbf0400e9c7c57f30b6ad0b0677e396b5a002cbf050d873c8925b966048e6a62"
      },
      "tapscript_root": "dbf0400e9c7c57f30b6ad0b0677e396b5a002cbf050d873c8925b966048e6a62",
      "internal_key": "03d4c77088d346bce67c13bbbf82ca112588f4b1c9595a1f8af3be9b2f95a109a0",
      "output_key": "02df20bcec43daa75161f7d013254e401812e0fee8bc3369220b6a33672fc18ba0",
      "pkscript": "5120df20bcec43daa75161f7d013254e401812e0fee8bc3369220b6a33672fc18ba0"
    },
    "second_level_htlc_timeout": {
      "scripts": {
        "success": "2015ec0138eb42f1ab4603042123988d53c854e89d1d87aa4dbb97a57482029c05ad029000b2"
      },
      "leaf_hashes": {
        "success": "dbf0400e9c7c57f30b6ad0b0677e396b5a002cbf050d873c8925b966048e6a62"
      },
      "tapscript_root": "dbf0400e9c7c57f30b6ad0b0677e396b5a002cbf050d873c8925b966048e6a62",
      "internal_key": "03d4c77088d346bce67c13bbbf82ca112588f4b1c9595a1f8af3be9b2f95a109a0",
      "output_key": "02df20bcec43daa75161f7d013254e401812e0fee8bc3369220b6a33672fc18ba0",
      "pkscript": "5120df20bcec43daa75161f7d013254e401812e0fee8bc3369220b6a33672fc18ba0"
    }
  },
  "transactions": [
    {
      "name": "simple commitment tx with no HTLCs",
      "local_balance_msat": 7000000000,
      "remote_balance_msat": 3000000000,
      "fee_per_kw": 15000,
      "htlcs": null,
      "local_sec_nonce": "22a453171ba4a634da1addcf660d63d8e23fb63169a2a7206f4e23290e4cc59bb3c3011fe3c31cb4f1192a2df56c2e52350ce0a82060fadf2404af9f81652c5f03b7203dec7c13896b6ff1f58b24f84458c441720a12b5a57426397e22f0a8c78b",
      "remote_sec_nonce": "ccdaea6955c7bd9fcb082dc67e32809a5bdd3a3edf770cbb990116c45f4b006e4b56aa81f8e555d6bd1906b159af16d0ac352690ccff6f6a99c43842ac2606ca02956e6845a6f346f97c5e028c0f8ab38a76b0124fd7184deab60f682b3e657fdb",
      "local_nonce": "025f2272ea289c5fe9d52d411f5a50a6d4882341bf0ecb201d5675850a2ba0b09d025bc489cf67752134ba81f8d7f1146d7455baf3190de75a6a661e2405212991a9",
      "remote_nonce": "02d324627074522af8cf4287caf1e073a3493550b99aed2697e58f476ec402e272039c25fc616207e15917b7145cefcb4c9c702580baf255597d2fa115564a74a130",
      "remote_partial_sig": "3fa93659d4c2d590eadbd422595a37597ed58607e026a91f4e6e19329134a931",
      "expected_commitment_tx_hex": "020000000001015474cba49124ab0c4327c244bb2907059585c4af3fa5f3469701534120fec0170000000000c5fe1780044a010000000000002251201249c50576fdf914caa14f9221370b986df520bdbc73f57d5056a86ee03e5ac44a01000000000000225120f67ab012701705f3203d132f909a6810ef18c5da4c11d986cb50818803b8344ec0c62d00000000002251203609bb705034e5629aa6ec05c5ca906ac89ac08b34c4583c259521ec3017440874946a00000000002251203e1fcbbd06c8a7414704612c72be9834a75d86ed85b29f0ef0c52e1950afaff30140a4a9eb512a2f4094efdd2c566f1f20cc8a6e2c307a4a44cc3f9fea7fa147dd7038f1b048aa43fa0b4009175c1c37c37b96c01058541f9e1b61110fce4e831d9f55dc1920",
      "htlc_descs": null
    },
    {
      "name": "commitment tx with five HTLCs untrimmed",
      "local_balance_msat": 6988000000,
      "remote_balance_msat": 3000000000,
      "fee_per_kw": 644,
      "htlcs": [
        {
          "incoming": true,
          "amount_msat": 1000000,
          "expiry": 500,
          "preimage": "0000000000000000000000000000000000000000000000000000000000000000"
        },
        {
          "incoming": true,
          "amount_msat": 2000000,
          "expiry": 501,
          "preimage": "0101010101010101010101010101010101010101010101010101010101010101"
        },
        {
          "incoming": false,
          "amount_msat": 2000000,
          "expiry": 502,
          "preimage": "0202020202020202020202020202020202020202020202020202020202020202"
        },
        {
          "incoming": false,
          "amount_msat": 3000000,
          "expiry": 503,
          "preimage": "0303030303030303030303030303030303030303030303030303030303030303"
        },
        {
          "incoming": true,
          "amount_msat": 4000000,
          "expiry": 504,
          "preimage": "0404040404040404040404040404040404040404040404040404040404040404"
        }
      ],
      "local_sec_nonce": "22a453171ba4a634da1addcf660d63d8e23fb63169a2a7206f4e23290e4cc59bb3c3011fe3c31cb4f1192a2df56c2e52350ce0a82060fadf2404af9f81652c5f03b7203dec7c13896b6ff1f58b24f84458c441720a12b5a57426397e22f0a8c78b",
      "remote_sec_nonce": "8c40a8ab26f1bd7d58010e991c72b0f102df6d0f050df28f56cefdafb9d06479958ea0a72180184e338b1b77fdf20690d5d980aac5c34cf123b189e373dba33e02956e6845a6f346f97c5e028c0f8ab38a76b0124fd7184deab60f682b3e657fdb",
      "local_nonce": "025f2272ea289c5fe9d52d411f5a50a6d4882341bf0ecb201d5675850a2ba0b09d025bc489cf67752134ba81f8d7f1146d7455baf3190de75a6a661e2405212991a9",
      "remote_nonce": "038a4018a074b5ddfc1424551e871bd739259c4e209f47177eb67c70cfbdb1e57c03c75684ad3a42d8c86a3eddb83b8160d67ef272078b44f21a8f889ee25e2459d3",
      "remote_partial_sig": "46efde50f08c128aa6472bbd50ea156fb9bde7b013f5e042f700729c94053613",
      "expected_commitment_tx_hex": "020000000001015474cba49124ab0c4327c244bb2907059585c4af3fa5f3469701534120fec0170000000000c5fe1780094a010000000000002251201249c50576fdf914caa14f9221370b986df520bdbc73f57d5056a86ee03e5ac44a01000000000000225120f67ab012701705f3203d132f909a6810ef18c5da4c11d986cb50818803b8344ee8030000000000002251209ce82cd1b1f6f975049d58019a7145a3ec9680079969cf929d7d2c4bc9b30637d0070000000000002251208937f8afbc80cf4ba773f1adc3d63ea26259f80f5a3ba622211906d2e7e6e23dd007000000000000225120bf9ae94dda9b5b88485cc67a966ec946b237d19626916dee034b789ebd7fd5fcb80b0000000000002251208fe2e1306e414e896dfd879475b5c1a6a01d4e79b32c0544aa185ccb73c392aaa00f000000000000225120d93389ba5cdde8570d3ba73487ff7fc9f8c3816645009e42110fe5239f5a3e62c0c62d00000000002251203609bb705034e5629aa6ec05c5ca906ac89ac08b34c4583c259521ec30174408b3996a00000000002251203e1fcbbd06c8a7414704612c72be9834a75d86ed85b29f0ef0c52e1950afaff301409dfe3b178022d975e4b86bd1f04bccfc7576363dbaf58f2ac682136ad89cbeb1a1d07eca1e0bc547b5c5c1133214565e5dfdc230bc7d4736aa7e1be3fb8269d355dc1920",
      "htlc_descs": [
        {
          "remote_partial_sig_hex": "fc97f7cfb97e1e48792b0ed174704cd98c886d368ede5adeb6288f0b350c8f88d076488973d0656da72d072e03eb9eb8b31737850894bca0924d8fdd63ddea69",
          "resolution_tx_hex": "02000000000101ec4c0a34c981864f9badcb8383bbe42ec6b32e68c2aa1a7c7c2e8422adde673f02000000000100000001e803000000000000225120df20bcec43daa75161f7d013254e401812e0fee8bc3369220b6a33672fc18ba00541fc97f7cfb97e1e48792b0ed174704cd98c886d368ede5adeb6288f0b350c8f88d076488973d0656da72d072e03eb9eb8b31737850894bca0924d8fdd63ddea6983405bd66541625ba684bb6ff0def3c542bb88d5195a760cb616a5d09dec6823238ccdde18c99d4f3634394d9c23d0e198babc609f464d9b4552664ca5d3b985758f2000000000000000000000000000000000000000000000000000000000000000005f82012088a914b8bcb07f6344b42ab04250c86a6e8b75d3fdbbc6882071e82ef65d5c667159036bfcf662cac2f6c41e38323d148bbbd00fdcd923739ead202deba21cf03c42362c9f912094f62ba045a040a2060882ba1ed3abf1f664a47dac41c0d4c77088d346bce67c13bbbf82ca112588f4b1c9595a1f8af3be9b2f95a109a0e5e8fd071b9ade6367122afbd8acacc1a6727ddb6d478612af30827590027e0300000000"
        },
        {
          "remote_partial_sig_hex": "c99d8d1ca721d1d4b9796cde49698fd46bb3faddd2bc7215de291ae9bd85cd9b2ab9bf40e36c752b698098b0986abe92b3cb21de8d6a388d9a6988d468e981e5",
          "resolution_tx_hex": "02000000000101ec4c0a34c981864f9badcb8383bbe42ec6b32e68c2aa1a7c7c2e8422adde673f03000000000100000001d007000000000000225120df20bcec43daa75161f7d013254e401812e0fee8bc3369220b6a33672fc18ba00541c99d8d1ca721d1d4b9796cde49698fd46bb3faddd2bc7215de291ae9bd85cd9b2ab9bf40e36c752b698098b0986abe92b3cb21de8d6a388d9a6988d468e981e583406a52ec691b47371892192e7222a76d978c18038b3f12479977366a09d2db91e66091332158d8f0b4e125394e1bf2d7ab40ab564c49e0686ffad56eadd6a1297e2001010101010101010101010101010101010101010101010101010101010101015f82012088a9144b6b2e5444c2639cc0fb7bcea5afba3f3cdce239882071e82ef65d5c667159036bfcf662cac2f6c41e38323d148bbbd00fdcd923739ead202deba21cf03c42362c9f912094f62ba045a040a2060882ba1ed3abf1f664a47dac41c0d4c77088d346bce67c13bbbf82ca112588f4b1c9595a1f8af3be9b2f95a109a0127d1790461eff920f14ba7cff2093c44b8a83e6f0a959fa60e04cf8c435cf4b00000000"
        },
        {
          "remote_partial_sig_hex": "b361ed8b70a09f4128fe610db649abcaafbc9b8600136e6f1b9735b4781cd65681faa32c29fef2a1485cc569c655b31b8eb75ab593749dd7f7d788fdec489133",
          "resolution_tx_hex": "02000000000101ec4c0a34c981864f9badcb8383bbe42ec6b32e68c2aa1a7c7c2e8422adde673f04000000000100000001d007000000000000225120df20bcec43daa75161f7d013254e401812e0fee8bc3369220b6a33672fc18ba00441b361ed8b70a09f4128fe610db649abcaafbc9b8600136e6f1b9735b4781cd65681faa32c29fef2a1485cc569c655b31b8eb75ab593749dd7f7d788fdec48913383403e94dbe70a26fc19b0d0053dfbf3da4c3e75dacf4abe337866645ffe21834a152f2edf7e520f352f104eef17fefa5a1535d692012cc766d36bd54f658c5c797f442071e82ef65d5c667159036bfcf662cac2f6c41e38323d148bbbd00fdcd923739ead202deba21cf03c42362c9f912094f62ba045a040a2060882ba1ed3abf1f664a47dac41c1d4c77088d346bce67c13bbbf82ca112588f4b1c9595a1f8af3be9b2f95a109a040b30263c4d7cd1fa6544e8bc8cd9efe857d7b5fd691c958936c3a2e0df2232ef6010000"
        },
        {
          "remote_partial_sig_hex": "9d1193d1bae8793ec502aa705a43a140e9f4c46607b4b8b414f76923c746a81cc320ffef6575f4c1ba55795770b41885dc90ed19025522805b1d0f5f5d440ebd",
          "resolution_tx_hex": "02000000000101ec4c0a34c981864f9badcb8383bbe42ec6b32e68c2aa1a7c7c2e8422adde673f05000000000100000001b80b000000000000225120df20bcec43daa75161f7d013254e401812e0fee8bc3369220b6a33672fc18ba004419d1193d1bae8793ec502aa705a43a140e9f4c46607b4b8b414f76923c746a81cc320ffef6575f4c1ba55795770b41885dc90ed19025522805b1d0f5f5d440ebd8340b149f17aab590815fbe4b19796dfc98aa857e81cdc1d15c82d64a2b626f40af8ae2a884197d74071e9b5648c7b5380db1084ac8ed2a8ed54ca9d589e6b5f7d8a442071e82ef65d5c667159036bfcf662cac2f6c41e38323d148bbbd00fdcd923739ead202deba21cf03c42362c9f912094f62ba045a040a2060882ba1ed3abf1f664a47dac41c0d4c77088d346bce67c13bbbf82ca112588f4b1c9595a1f8af3be9b2f95a109a064c44563d1bd58fa25c5c3ca7303c75849b6b3d91bf2e28f27068db4319b4c2ff7010000"
        },
        {
          "remote_partial_sig_hex": "58338a2d50a03ea615f0e0e295b12413308e6381412c14d276c4b39a2f1d17193a689cbe2ad0d33a63344cff36daa2edc94aa566d743ad6526ddb5cdb5819ea0",
          "resolution_tx_hex": "02000000000101ec4c0a34c981864f9badcb8383bbe42ec6b32e68c2aa1a7c7c2e8422adde673f06000000000100000001a00f000000000000225120df20bcec43daa75161f7d013254e401812e0fee8bc3369220b6a33672fc18ba0054158338a2d50a03ea615f0e0e295b12413308e6381412c14d276c4b39a2f1d17193a689cbe2ad0d33a63344cff36daa2edc94aa566d743ad6526ddb5cdb5819ea08340efcfcda15da18a2791a80700b2716d2386ea67649a5e43a505dbe22bd110cc2352e558d62e7abd7afe7640d2ee414affd88555378bfe05aa28d0fa289e8d1b542004040404040404040404040404040404040404040404040404040404040404045f82012088a91418bc1a114ccf9c052d3d23e28d3b0a9d12274342882071e82ef65d5c667159036bfcf662cac2f6c41e38323d148bbbd00fdcd923739ead202deba21cf03c42362c9f912094f62ba045a040a2060882ba1ed3abf1f664a47dac41c1d4c77088d346bce67c13bbbf82ca112588f4b1c9595a1f8af3be9b2f95a109a06c3390c812b2596986592f02c7f22e4f857fb553805ff9ac1c2bda361c47c3fb00000000"
        }
      ]
    },
    {
      "name": "commitment tx with some HTLCs trimmed",
      "local_balance_msat": 6988000000,
      "remote_balance_msat": 3000000000,
      "fee_per_kw": 644,
      "dust_limit_satoshis": 2500,
      "htlcs": [
        {
          "incoming": true,
          "amount_msat": 1000000,
          "expiry": 500,
          "preimage": "0000000000000000000000000000000000000000000000000000000000000000"
        },
        {
          "incoming": true,
          "amount_msat": 2000000,
          "expiry": 501,
          "preimage": "0101010101010101010101010101010101010101010101010101010101010101"
        },
        {
          "incoming": false,
          "amount_msat": 2000000,
          "expiry": 502,
          "preimage": "0202020202020202020202020202020202020202020202020202020202020202"
        },
        {
          "incoming": false,
          "amount_msat": 3000000,
          "expiry": 503,
          "preimage": "0303030303030303030303030303030303030303030303030303030303030303"
        },
        {
          "incoming": true,
          "amount_msat": 4000000,
          "expiry": 504,
          "preimage": "0404040404040404040404040404040404040404040404040404040404040404"
        }
      ],
      "local_sec_nonce": "22a453171ba4a634da1addcf660d63d8e23fb63169a2a7206f4e23290e4cc59bb3c3011fe3c31cb4f1192a2df56c2e52350ce0a82060fadf2404af9f81652c5f03b7203dec7c13896b6ff1f58b24f84458c441720a12b5a57426397e22f0a8c78b",
      "remote_sec_nonce": "8c5bd39820b3e20d65bf72e530078bf5e8ba057c1654d0a15778a0d3225e0233eb8d7b1d3574e40e57a2cd12dc3b33193c0ac17545564df3ff88021f3c30033702956e6845a6f346f97c5e028c0f8ab38a76b0124fd7184deab60f682b3e657fdb",
      "local_nonce": "025f2272ea289c5fe9d52d411f5a50a6d4882341bf0ecb201d5675850a2ba0b09d025bc489cf67752134ba81f8d7f1146d7455baf3190de75a6a661e2405212991a9",
      "remote_nonce": "03fd9fa808377737b105f7df362ed513e3946f2bb49dfbca5c2ce2be138ff0607502e4c73701eae82afa7a01993f62321648a6235ef0c958e35766a9e53e4eaf9d34",
      "remote_partial_sig": "3e454598e0661188da0e4cf1b806b13c627adb7ab38bab27418cc976769771c3",
      "expected_commitment_tx_hex": "020000000001015474cba49124ab0c4327c244bb2907059585c4af3fa5f3469701534120fec0170000000000c5fe1780064a010000000000002251201249c50576fdf914caa14f9221370b986df520bdbc73f57d5056a86ee03e5ac44a01000000000000225120f67ab012701705f3203d132f909a6810ef18c5da4c11d986cb50818803b8344eb80b0000000000002251208fe2e1306e414e896dfd879475b5c1a6a01d4e79b32c0544aa185ccb73c392aaa00f000000000000225120d93389ba5cdde8570d3ba73487ff7fc9f8c3816645009e42110fe5239f5a3e62c0c62d00000000002251203609bb705034e5629aa6ec05c5ca906ac89ac08b34c4583c259521ec30174408009b6a00000000002251203e1fcbbd06c8a7414704612c72be9834a75d86ed85b29f0ef0c52e1950afaff30140dfd9604ad0b4fed040382f4829e20a0ef4b5558d0189178a5e9c26a8b4bd8547fd563ee60884daf91c8a1ae71e08b452a93ad3bdf5c572f642d42606736dc5f755dc1920",
      "htlc_descs": [
        {
          "remote_partial_sig_hex": "7058caa9a075344e095d95736bb6a00c5b7259f439e60e7e1c6cd641a20d6a25c13d2930ebe51a69ffea78daa12b07237179c8b0584c75499f7bfa4f5afa9776",
          "resolution_tx_hex": "020000000001018c47e10e0d210da9e50d73b1adda7a598f79ced25806dd0fa6807bb78780dbbb02000000000100000001b80b000000000000225120df20bcec43daa75161f7d013254e401812e0fee8bc3369220b6a33672fc18ba004417058caa9a075344e095d95736bb6a00c5b7259f439e60e7e1c6cd641a20d6a25c13d2930ebe51a69ffea78daa12b07237179c8b0584c75499f7bfa4f5afa97768340d3a4bcb6c20446364506f75e1d1c4da8ad5ae2f6e5a7ad544965e48f28c02a4e250b0a958a4b2d9d78632771b8f5ea739b63bbf98a6c7511a2456c0d78844642442071e82ef65d5c667159036bfcf662cac2f6c41e38323d148bbbd00fdcd923739ead202deba21cf03c42362c9f912094f62ba045a040a2060882ba1ed3abf1f664a47dac41c0d4c77088d346bce67c13bbbf82ca112588f4b1c9595a1f8af3be9b2f95a109a064c44563d1bd58fa25c5c3ca7303c75849b6b3d91bf2e28f27068db4319b4c2ff7010000"
        },
        {
          "remote_partial_sig_hex": "818132325cc01e441876615f30c3df5c27df1722db49005dff3856226a41f34c776f98a35dd74fe2f863ea23ac611e06d0aac890227346b1fc53dc62c789d372",
          "resolution_tx_hex": "020000000001018c47e10e0d210da9e50d73b1adda7a598f79ced25806dd0fa6807bb78780dbbb03000000000100000001a00f000000000000225120df20bcec43daa75161f7d013254e401812e0fee8bc3369220b6a33672fc18ba00541818132325cc01e441876615f30c3df5c27df1722db49005dff3856226a41f34c776f98a35dd74fe2f863ea23ac611e06d0aac890227346b1fc53dc62c789d37283408e0222c158069b3f19ec0798b3516b79cc2e6293abb1120d54c41c7bae3aa2579c5c3586ad68275a9f99ac14e9a1e48b9c3c7100fd834585264a943c523bea642004040404040404040404040404040404040404040404040404040404040404045f82012088a91418bc1a114ccf9c052d3d23e28d3b0a9d12274342882071e82ef65d5c667159036bfcf662cac2f6c41e38323d148bbbd00fdcd923739ead202deba21cf03c42362c9f912094f62ba045a040a2060882ba1ed3abf1f664a47dac41c1d4c77088d346bce67c13bbbf82ca112588f4b1c9595a1f8af3be9b2f95a109a06c3390c812b2596986592f02c7f22e4f857fb553805ff9ac1c2bda361c47c3fb00000000"
        }
      ]
    }
  ]
}